{"_format":"hh-sol-artifact-1","contractName":"Marketplace","sourceName":"contracts/Marketplace.sol","abi":[{"inputs":[{"internalType":"uint256","name":"_feePercent","type":"uint256"}],"stateMutability":"nonpayable","type":"constructor"},{"anonymous":false,"inputs":[{"indexed":false,"internalType":"uint256","name":"itemcnt","type":"uint256"},{"indexed":true,"internalType":"address","name":"nft","type":"address"},{"indexed":false,"internalType":"uint256","name":"tokenid","type":"uint256"},{"indexed":false,"internalType":"uint256","name":"price","type":"uint256"},{"indexed":true,"internalType":"address","name":"seller","type":"address"},{"indexed":true,"internalType":"address","name":"buyer","type":"address"}],"name":"Bought","type":"event"},{"anonymous":false,"inputs":[{"indexed":false,"internalType":"uint256","name":"itemcnt","type":"uint256"},{"indexed":true,"internalType":"address","name":"nft","type":"address"},{"indexed":false,"internalType":"uint256","name":"tokenid","type":"uint256"},{"indexed":false,"internalType":"uint256","name":"price","type":"uint256"},{"indexed":true,"internalType":"address","name":"seller","type":"address"}],"name":"Offered","type":"event"},{"inputs":[{"internalType":"uint256","name":"","type":"uint256"}],"name":"Items","outputs":[{"internalType":"address payable","name":"seller","type":"address"},{"internalType":"uint256","name":"tokenid","type":"uint256"},{"internalType":"uint256","name":"itemid","type":"uint256"},{"internalType":"uint256","name":"price","type":"uint256"},{"internalType":"contract IERC721","name":"nft","type":"address"},{"internalType":"bool","name":"sold","type":"bool"}],"stateMutability":"view","type":"function"},{"inputs":[],"name":"feePercent","outputs":[{"internalType":"uint256","name":"","type":"uint256"}],"stateMutability":"view","type":"function"},{"inputs":[],"name":"feeaddress","outputs":[{"internalType":"address payable","name":"","type":"address"}],"stateMutability":"view","type":"function"},{"inputs":[{"internalType":"uint256","name":"itemid","type":"uint256"}],"name":"getTotalPrice","outputs":[{"internalType":"uint256","name":"","type":"uint256"}],"stateMutability":"view","type":"function"},{"inputs":[],"name":"itemcnt","outputs":[{"internalType":"uint256","name":"","type":"uint256"}],"stateMutability":"view","type":"function"},{"inputs":[{"internalType":"contract IERC721","name":"_nft","type":"address"},{"internalType":"uint256","name":"_price","type":"uint256"},{"internalType":"uint256","name":"_tokenid","type":"uint256"}],"name":"makeItem","outputs":[],"stateMutability":"nonpayable","type":"function"},{"inputs":[{"internalType":"uint256","name":"_itemId","type":"uint256"}],"name":"purchaseItem","outputs":[],"stateMutability":"payable","type":"function"}],"bytecode":"0x60a060405234801561001057600080fd5b506040516110f73803806110f7833981810160405281019061003291906100b6565b6001600081905550806001819055503373ffffffffffffffffffffffffffffffffffffffff1660808173ffffffffffffffffffffffffffffffffffffffff1681525050506100e3565b600080fd5b6000819050919050565b61009381610080565b811461009e57600080fd5b50565b6000815190506100b08161008a565b92915050565b6000602082840312156100cc576100cb61007b565b5b60006100da848285016100a1565b91505092915050565b608051610ff261010560003960008181610245015261043b0152610ff26000f3fe6080604052600436106100705760003560e01c8063832f8bdf1161004e578063832f8bdf1461010d578063ca7dd37514610138578063d38ea5bf14610175578063fa00afc71461019157610070565b806317b47cc41461007557806361e71839146100b75780637fd6f15c146100e2575b600080fd5b34801561008157600080fd5b5061009c60048036038101906100979190610960565b6101ba565b6040516100ae96959493929190610a57565b60405180910390f35b3480156100c357600080fd5b506100cc610243565b6040516100d99190610ab8565b60405180910390f35b3480156100ee57600080fd5b506100f7610267565b6040516101049190610ad3565b60405180910390f35b34801561011957600080fd5b5061012261026d565b60405161012f9190610ad3565b60405180910390f35b34801561014457600080fd5b5061015f600480360381019061015a9190610960565b610273565b60405161016c9190610ad3565b60405180910390f35b61018f600480360381019061018a9190610960565b6102b8565b005b34801561019d57600080fd5b506101b860048036038101906101b39190610b3e565b610640565b005b60036020528060005260406000206000915090508060000160009054906101000a900473ffffffffffffffffffffffffffffffffffffffff16908060010154908060020154908060030154908060040160009054906101000a900473ffffffffffffffffffffffffffffffffffffffff16908060040160149054906101000a900460ff16905086565b7f000000000000000000000000000000000000000000000000000000000000000081565b60015481565b60025481565b6000606460015460646102869190610bc0565b60036000858152602001908152602001600020600301546102a79190610bf4565b6102b19190610c65565b9050919050565b6102c06108cc565b60006102cb82610273565b905060006003600084815260200190815260200160002090506000831180156102f657506002548311155b610335576040517f08c379a000000000000000000000000000000000000000000000000000000000815260040161032c90610cf3565b60405180910390fd5b81341015610378576040517f08c379a000000000000000000000000000000000000000000000000000000000815260040161036f90610d5f565b60405180910390fd5b8060040160149054906101000a900460ff16156103ca576040517f08c379a00000000000000000000000000000000000000000000000000000000081526004016103c190610dcb565b60405180910390fd5b8060000160009054906101000a900473ffffffffffffffffffffffffffffffffffffffff1673ffffffffffffffffffffffffffffffffffffffff166108fc82600301549081150290604051600060405180830381858888f19350505050158015610438573d6000803e3d6000fd5b507f000000000000000000000000000000000000000000000000000000000000000073ffffffffffffffffffffffffffffffffffffffff166108fc8260030154846104839190610deb565b9081150290604051600060405180830381858888f193505050501580156104ae573d6000803e3d6000fd5b5060018160040160146101000a81548160ff0219169083151502179055508060040160009054906101000a900473ffffffffffffffffffffffffffffffffffffffff1673ffffffffffffffffffffffffffffffffffffffff166323b872dd303384600101546040518463ffffffff1660e01b815260040161053193929190610e2e565b600060405180830381600087803b15801561054b57600080fd5b505af115801561055f573d6000803e3d6000fd5b505050503373ffffffffffffffffffffffffffffffffffffffff168160000160009054906101000a900473ffffffffffffffffffffffffffffffffffffffff1673ffffffffffffffffffffffffffffffffffffffff168260040160009054906101000a900473ffffffffffffffffffffffffffffffffffffffff1673ffffffffffffffffffffffffffffffffffffffff167f8b4c9c8a607d67b321582dd8461041b1dc2ceeca70c8b7f37f8e02095cf2e76d868560010154866003015460405161062b93929190610e65565b60405180910390a4505061063d61091b565b50565b6106486108cc565b6000821161068b576040517f08c379a000000000000000000000000000000000000000000000000000000000815260040161068290610ee8565b60405180910390fd5b6002600081548092919061069e90610f08565b91905055508273ffffffffffffffffffffffffffffffffffffffff166323b872dd3330846040518463ffffffff1660e01b81526004016106e093929190610e2e565b600060405180830381600087803b1580156106fa57600080fd5b505af115801561070e573d6000803e3d6000fd5b505050506040518060c001604052803373ffffffffffffffffffffffffffffffffffffffff16815260200182815260200160025481526020018381526020018473ffffffffffffffffffffffffffffffffffffffff1681526020016000151581525060036000600254815260200190815260200160002060008201518160000160006101000a81548173ffffffffffffffffffffffffffffffffffffffff021916908373ffffffffffffffffffffffffffffffffffffffff16021790555060208201518160010155604082015181600201556060820151816003015560808201518160040160006101000a81548173ffffffffffffffffffffffffffffffffffffffff021916908373ffffffffffffffffffffffffffffffffffffffff16021790555060a08201518160040160146101000a81548160ff0219169083151502179055509050503373ffffffffffffffffffffffffffffffffffffffff168373ffffffffffffffffffffffffffffffffffffffff167f655a0cf9c8db81512be9a76dc1c5ae5380b8816ce6ad659cd61b715e2999d59a60025484866040516108b793929190610e65565b60405180910390a36108c761091b565b505050565b600260005403610911576040517f08c379a000000000000000000000000000000000000000000000000000000000815260040161090890610f9c565b60405180910390fd5b6002600081905550565b6001600081905550565b600080fd5b6000819050919050565b61093d8161092a565b811461094857600080fd5b50565b60008135905061095a81610934565b92915050565b60006020828403121561097657610975610925565b5b60006109848482850161094b565b91505092915050565b600073ffffffffffffffffffffffffffffffffffffffff82169050919050565b60006109b88261098d565b9050919050565b6109c8816109ad565b82525050565b6109d78161092a565b82525050565b6000819050919050565b6000610a026109fd6109f88461098d565b6109dd565b61098d565b9050919050565b6000610a14826109e7565b9050919050565b6000610a2682610a09565b9050919050565b610a3681610a1b565b82525050565b60008115159050919050565b610a5181610a3c565b82525050565b600060c082019050610a6c60008301896109bf565b610a7960208301886109ce565b610a8660408301876109ce565b610a9360608301866109ce565b610aa06080830185610a2d565b610aad60a0830184610a48565b979650505050505050565b6000602082019050610acd60008301846109bf565b92915050565b6000602082019050610ae860008301846109ce565b92915050565b6000610af98261098d565b9050919050565b6000610b0b82610aee565b9050919050565b610b1b81610b00565b8114610b2657600080fd5b50565b600081359050610b3881610b12565b92915050565b600080600060608486031215610b5757610b56610925565b5b6000610b6586828701610b29565b9350506020610b768682870161094b565b9250506040610b878682870161094b565b9150509250925092565b7f4e487b7100000000000000000000000000000000000000000000000000000000600052601160045260246000fd5b6000610bcb8261092a565b9150610bd68361092a565b9250828201905080821115610bee57610bed610b91565b5b92915050565b6000610bff8261092a565b9150610c0a8361092a565b9250828202610c188161092a565b91508282048414831517610c2f57610c2e610b91565b5b5092915050565b7f4e487b7100000000000000000000000000000000000000000000000000000000600052601260045260246000fd5b6000610c708261092a565b9150610c7b8361092a565b925082610c8b57610c8a610c36565b5b828204905092915050565b600082825260208201905092915050565b7f656e7465722076616c6964206974656d20696400000000000000000000000000600082015250565b6000610cdd601383610c96565b9150610ce882610ca7565b602082019050919050565b60006020820190508181036000830152610d0c81610cd0565b9050919050565b7f6e6f7420656e6f7567682066756e64732073656e640000000000000000000000600082015250565b6000610d49601583610c96565b9150610d5482610d13565b602082019050919050565b60006020820190508181036000830152610d7881610d3c565b9050919050565b7f616c726561647920736f6c640000000000000000000000000000000000000000600082015250565b6000610db5600c83610c96565b9150610dc082610d7f565b602082019050919050565b60006020820190508181036000830152610de481610da8565b9050919050565b6000610df68261092a565b9150610e018361092a565b9250828203905081811115610e1957610e18610b91565b5b92915050565b610e2881610aee565b82525050565b6000606082019050610e436000830186610e1f565b610e506020830185610e1f565b610e5d60408301846109ce565b949350505050565b6000606082019050610e7a60008301866109ce565b610e8760208301856109ce565b610e9460408301846109ce565b949350505050565b7f707269636573686f756c642062652067726561746572207468616e2030000000600082015250565b6000610ed2601d83610c96565b9150610edd82610e9c565b602082019050919050565b60006020820190508181036000830152610f0181610ec5565b9050919050565b6000610f138261092a565b91507fffffffffffffffffffffffffffffffffffffffffffffffffffffffffffffffff8203610f4557610f44610b91565b5b600182019050919050565b7f5265656e7472616e637947756172643a207265656e7472616e742063616c6c00600082015250565b6000610f86601f83610c96565b9150610f9182610f50565b602082019050919050565b60006020820190508181036000830152610fb581610f79565b905091905056fea2646970667358221220a37c415a9b1035c3b579181bf6ea148c4b5fc9b6d3d9fe679cb70ee9e4b8d2fd64736f6c63430008120033","linkReferences":{},"deployedLinkReferences":{}}