{"_format":"hh-sol-artifact-1","contractName":"NFT","sourceName":"contracts/NFT.sol","abi":[{"inputs":[],"stateMutability":"nonpayable","type":"constructor"},{"anonymous":false,"inputs":[{"indexed":true,"internalType":"address","name":"owner","type":"address"},{"indexed":true,"internalType":"address","name":"approved","type":"address"},{"indexed":true,"internalType":"uint256","name":"tokenId","type":"uint256"}],"name":"Approval","type":"event"},{"anonymous":false,"inputs":[{"indexed":true,"internalType":"address","name":"owner","type":"address"},{"indexed":true,"internalType":"address","name":"operator","type":"address"},{"indexed":false,"internalType":"bool","name":"approved","type":"bool"}],"name":"ApprovalForAll","type":"event"},{"anonymous":false,"inputs":[{"indexed":true,"internalType":"address","name":"from","type":"address"},{"indexed":true,"internalType":"address","name":"to","type":"address"},{"indexed":true,"internalType":"uint256","name":"tokenId","type":"uint256"}],"name":"Transfer","type":"event"},{"inputs":[{"internalType":"address","name":"to","type":"address"},{"internalType":"uint256","name":"tokenId","type":"uint256"}],"name":"approve","outputs":[],"stateMutability":"nonpayable","type":"function"},{"inputs":[{"internalType":"address","name":"owner","type":"address"}],"name":"balanceOf","outputs":[{"internalType":"uint256","name":"","type":"uint256"}],"stateMutability":"view","type":"function"},{"inputs":[{"internalType":"uint256","name":"tokenId","type":"uint256"}],"name":"getApproved","outputs":[{"internalType":"address","name":"","type":"address"}],"stateMutability":"view","type":"function"},{"inputs":[{"internalType":"address","name":"owner","type":"address"},{"internalType":"address","name":"operator","type":"address"}],"name":"isApprovedForAll","outputs":[{"internalType":"bool","name":"","type":"bool"}],"stateMutability":"view","type":"function"},{"inputs":[{"internalType":"string","name":"tokenURI","type":"string"}],"name":"mint","outputs":[{"internalType":"uint256","name":"","type":"uint256"}],"stateMutability":"nonpayable","type":"function"},{"inputs":[],"name":"name","outputs":[{"internalType":"string","name":"","type":"string"}],"stateMutability":"view","type":"function"},{"inputs":[{"internalType":"uint256","name":"tokenId","type":"uint256"}],"name":"ownerOf","outputs":[{"internalType":"address","name":"","type":"address"}],"stateMutability":"view","type":"function"},{"inputs":[{"internalType":"address","name":"from","type":"address"},{"internalType":"address","name":"to","type":"address"},{"internalType":"uint256","name":"tokenId","type":"uint256"}],"name":"safeTransferFrom","outputs":[],"stateMutability":"nonpayable","type":"function"},{"inputs":[{"internalType":"address","name":"from","type":"address"},{"internalType":"address","name":"to","type":"address"},{"internalType":"uint256","name":"tokenId","type":"uint256"},{"internalType":"bytes","name":"data","type":"bytes"}],"name":"safeTransferFrom","outputs":[],"stateMutability":"nonpayable","type":"function"},{"inputs":[{"internalType":"address","name":"operator","type":"address"},{"internalType":"bool","name":"approved","type":"bool"}],"name":"setApprovalForAll","outputs":[],"stateMutability":"nonpayable","type":"function"},{"inputs":[{"internalType":"bytes4","name":"interfaceId","type":"bytes4"}],"name":"supportsInterface","outputs":[{"internalType":"bool","name":"","type":"bool"}],"stateMutability":"view","type":"function"},{"inputs":[],"name":"symbol","outputs":[{"internalType":"string","name":"","type":"string"}],"stateMutability":"view","type":"function"},{"inputs":[],"name":"tokeCount","outputs":[{"internalType":"uint256","name":"","type":"uint256"}],"stateMutability":"view","type":"function"},{"inputs":[{"internalType":"uint256","name":"tokenId","type":"uint256"}],"name":"tokenURI","outputs":[{"internalType":"string","name":"","type":"string"}],"stateMutability":"view","type":"function"},{"inputs":[{"internalType":"address","name":"from","type":"address"},{"internalType":"address","name":"to","type":"address"},{"internalType":"uint256","name":"tokenId","type":"uint256"}],"name":"transferFrom","outputs":[],"stateMutability":"nonpayable","type":"function"}],"bytecode":"0x60806040523480156200001157600080fd5b506040518060400160405280600881526020017f44617070204e46540000000000000000000000000000000000000000000000008152506040518060400160405280600481526020017f446170700000000000000000000000000000000000000000000000000000000081525081600090816200008f919062000324565b508060019081620000a1919062000324565b5050506200040b565b600081519050919050565b7f4e487b7100000000000000000000000000000000000000000000000000000000600052604160045260246000fd5b7f4e487b7100000000000000000000000000000000000000000000000000000000600052602260045260246000fd5b600060028204905060018216806200012c57607f821691505b602082108103620001425762000141620000e4565b5b50919050565b60008190508160005260206000209050919050565b60006020601f8301049050919050565b600082821b905092915050565b600060088302620001ac7fffffffffffffffffffffffffffffffffffffffffffffffffffffffffffffffff826200016d565b620001b886836200016d565b95508019841693508086168417925050509392505050565b6000819050919050565b6000819050919050565b600062000205620001ff620001f984620001d0565b620001da565b620001d0565b9050919050565b6000819050919050565b6200022183620001e4565b6200023962000230826200020c565b8484546200017a565b825550505050565b600090565b6200025062000241565b6200025d81848462000216565b505050565b5b8181101562000285576200027960008262000246565b60018101905062000263565b5050565b601f821115620002d4576200029e8162000148565b620002a9846200015d565b81016020851015620002b9578190505b620002d1620002c8856200015d565b83018262000262565b50505b505050565b600082821c905092915050565b6000620002f960001984600802620002d9565b1980831691505092915050565b6000620003148383620002e6565b9150826002028217905092915050565b6200032f82620000aa565b67ffffffffffffffff8111156200034b576200034a620000b5565b5b62000357825462000113565b6200036482828562000289565b600060209050601f8311600181146200039c576000841562000387578287015190505b62000393858262000306565b86555062000403565b601f198416620003ac8662000148565b60005b82811015620003d657848901518255600182019150602085019450602081019050620003af565b86831015620003f65784890151620003f2601f891682620002e6565b8355505b6001600288020188555050505b505050505050565b612b34806200041b6000396000f3fe608060405234801561001057600080fd5b50600436106100f55760003560e01c806370a0823111610097578063bf2175ff11610066578063bf2175ff14610282578063c87b56dd146102a0578063d85d3d27146102d0578063e985e9c514610300576100f5565b806370a08231146101fc57806395d89b411461022c578063a22cb4651461024a578063b88d4fde14610266576100f5565b8063095ea7b3116100d3578063095ea7b31461017857806323b872dd1461019457806342842e0e146101b05780636352211e146101cc576100f5565b806301ffc9a7146100fa57806306fdde031461012a578063081812fc14610148575b600080fd5b610114600480360381019061010f91906119bf565b610330565b6040516101219190611a07565b60405180910390f35b610132610412565b60405161013f9190611ab2565b60405180910390f35b610162600480360381019061015d9190611b0a565b6104a4565b60405161016f9190611b78565b60405180910390f35b610192600480360381019061018d9190611bbf565b6104ea565b005b6101ae60048036038101906101a99190611bff565b610601565b005b6101ca60048036038101906101c59190611bff565b610661565b005b6101e660048036038101906101e19190611b0a565b610681565b6040516101f39190611b78565b60405180910390f35b61021660048036038101906102119190611c52565b610707565b6040516102239190611c8e565b60405180910390f35b6102346107be565b6040516102419190611ab2565b60405180910390f35b610264600480360381019061025f9190611cd5565b610850565b005b610280600480360381019061027b9190611e4a565b610866565b005b61028a6108c8565b6040516102979190611c8e565b60405180910390f35b6102ba60048036038101906102b59190611b0a565b6108ce565b6040516102c79190611ab2565b60405180910390f35b6102ea60048036038101906102e59190611f6e565b6109e0565b6040516102f79190611c8e565b60405180910390f35b61031a60048036038101906103159190611fb7565b610a1c565b6040516103279190611a07565b60405180910390f35b60007f80ac58cd000000000000000000000000000000000000000000000000000000007bffffffffffffffffffffffffffffffffffffffffffffffffffffffff1916827bffffffffffffffffffffffffffffffffffffffffffffffffffffffff191614806103fb57507f5b5e139f000000000000000000000000000000000000000000000000000000007bffffffffffffffffffffffffffffffffffffffffffffffffffffffff1916827bffffffffffffffffffffffffffffffffffffffffffffffffffffffff1916145b8061040b575061040a82610ab0565b5b9050919050565b60606000805461042190612026565b80601f016020809104026020016040519081016040528092919081815260200182805461044d90612026565b801561049a5780601f1061046f5761010080835404028352916020019161049a565b820191906000526020600020905b81548152906001019060200180831161047d57829003601f168201915b5050505050905090565b60006104af82610b1a565b6004600083815260200190815260200160002060009054906101000a900473ffffffffffffffffffffffffffffffffffffffff169050919050565b60006104f582610681565b90508073ffffffffffffffffffffffffffffffffffffffff168373ffffffffffffffffffffffffffffffffffffffff1603610565576040517f08c379a000000000000000000000000000000000000000000000000000000000815260040161055c906120c9565b60405180910390fd5b8073ffffffffffffffffffffffffffffffffffffffff16610584610b65565b73ffffffffffffffffffffffffffffffffffffffff1614806105b357506105b2816105ad610b65565b610a1c565b5b6105f2576040517f08c379a00000000000000000000000000000000000000000000000000000000081526004016105e99061215b565b60405180910390fd5b6105fc8383610b6d565b505050565b61061261060c610b65565b82610c26565b610651576040517f08c379a0000000000000000000000000000000000000000000000000000000008152600401610648906121ed565b60405180910390fd5b61065c838383610cbb565b505050565b61067c83838360405180602001604052806000815250610866565b505050565b60008061068d83610fb4565b9050600073ffffffffffffffffffffffffffffffffffffffff168173ffffffffffffffffffffffffffffffffffffffff16036106fe576040517f08c379a00000000000000000000000000000000000000000000000000000000081526004016106f590612259565b60405180910390fd5b80915050919050565b60008073ffffffffffffffffffffffffffffffffffffffff168273ffffffffffffffffffffffffffffffffffffffff1603610777576040517f08c379a000000000000000000000000000000000000000000000000000000000815260040161076e906122eb565b60405180910390fd5b600360008373ffffffffffffffffffffffffffffffffffffffff1673ffffffffffffffffffffffffffffffffffffffff168152602001908152602001600020549050919050565b6060600180546107cd90612026565b80601f01602080910402602001604051908101604052809291908181526020018280546107f990612026565b80156108465780601f1061081b57610100808354040283529160200191610846565b820191906000526020600020905b81548152906001019060200180831161082957829003601f168201915b5050505050905090565b61086261085b610b65565b8383610ff1565b5050565b610877610871610b65565b83610c26565b6108b6576040517f08c379a00000000000000000000000000000000000000000000000000000000081526004016108ad906121ed565b60405180910390fd5b6108c28484848461115d565b50505050565b60075481565b60606108d982610b1a565b60006006600084815260200190815260200160002080546108f990612026565b80601f016020809104026020016040519081016040528092919081815260200182805461092590612026565b80156109725780601f1061094757610100808354040283529160200191610972565b820191906000526020600020905b81548152906001019060200180831161095557829003601f168201915b5050505050905060006109836111b9565b905060008151036109985781925050506109db565b6000825111156109cd5780826040516020016109b5929190612347565b604051602081830303815290604052925050506109db565b6109d6846111d0565b925050505b919050565b6000600760008154809291906109f59061239a565b9190505550610a0633600754611238565b610a1260075483611256565b6007549050919050565b6000600560008473ffffffffffffffffffffffffffffffffffffffff1673ffffffffffffffffffffffffffffffffffffffff16815260200190815260200160002060008373ffffffffffffffffffffffffffffffffffffffff1673ffffffffffffffffffffffffffffffffffffffff16815260200190815260200160002060009054906101000a900460ff16905092915050565b60007f01ffc9a7000000000000000000000000000000000000000000000000000000007bffffffffffffffffffffffffffffffffffffffffffffffffffffffff1916827bffffffffffffffffffffffffffffffffffffffffffffffffffffffff1916149050919050565b610b23816112c3565b610b62576040517f08c379a0000000000000000000000000000000000000000000000000000000008152600401610b5990612259565b60405180910390fd5b50565b600033905090565b816004600083815260200190815260200160002060006101000a81548173ffffffffffffffffffffffffffffffffffffffff021916908373ffffffffffffffffffffffffffffffffffffffff160217905550808273ffffffffffffffffffffffffffffffffffffffff16610be083610681565b73ffffffffffffffffffffffffffffffffffffffff167f8c5be1e5ebec7d5bd14f71427d1e84f3dd0314c0f7b2291e5b200ac8c7c3b92560405160405180910390a45050565b600080610c3283610681565b90508073ffffffffffffffffffffffffffffffffffffffff168473ffffffffffffffffffffffffffffffffffffffff161480610c745750610c738185610a1c565b5b80610cb257508373ffffffffffffffffffffffffffffffffffffffff16610c9a846104a4565b73ffffffffffffffffffffffffffffffffffffffff16145b91505092915050565b8273ffffffffffffffffffffffffffffffffffffffff16610cdb82610681565b73ffffffffffffffffffffffffffffffffffffffff1614610d31576040517f08c379a0000000000000000000000000000000000000000000000000000000008152600401610d2890612454565b60405180910390fd5b600073ffffffffffffffffffffffffffffffffffffffff168273ffffffffffffffffffffffffffffffffffffffff1603610da0576040517f08c379a0000000000000000000000000000000000000000000000000000000008152600401610d97906124e6565b60405180910390fd5b610dad8383836001611304565b8273ffffffffffffffffffffffffffffffffffffffff16610dcd82610681565b73ffffffffffffffffffffffffffffffffffffffff1614610e23576040517f08c379a0000000000000000000000000000000000000000000000000000000008152600401610e1a90612454565b60405180910390fd5b6004600082815260200190815260200160002060006101000a81549073ffffffffffffffffffffffffffffffffffffffff02191690556001600360008573ffffffffffffffffffffffffffffffffffffffff1673ffffffffffffffffffffffffffffffffffffffff168152602001908152602001600020600082825403925050819055506001600360008473ffffffffffffffffffffffffffffffffffffffff1673ffffffffffffffffffffffffffffffffffffffff16815260200190815260200160002060008282540192505081905550816002600083815260200190815260200160002060006101000a81548173ffffffffffffffffffffffffffffffffffffffff021916908373ffffffffffffffffffffffffffffffffffffffff160217905550808273ffffffffffffffffffffffffffffffffffffffff168473ffffffffffffffffffffffffffffffffffffffff167fddf252ad1be2c89b69c2b068fc378daa952ba7f163c4a11628f55a4df523b3ef60405160405180910390a4610faf838383600161130a565b505050565b60006002600083815260200190815260200160002060009054906101000a900473ffffffffffffffffffffffffffffffffffffffff169050919050565b8173ffffffffffffffffffffffffffffffffffffffff168373ffffffffffffffffffffffffffffffffffffffff160361105f576040517f08c379a000000000000000000000000000000000000000000000000000000000815260040161105690612552565b60405180910390fd5b80600560008573ffffffffffffffffffffffffffffffffffffffff1673ffffffffffffffffffffffffffffffffffffffff16815260200190815260200160002060008473ffffffffffffffffffffffffffffffffffffffff1673ffffffffffffffffffffffffffffffffffffffff16815260200190815260200160002060006101000a81548160ff0219169083151502179055508173ffffffffffffffffffffffffffffffffffffffff168373ffffffffffffffffffffffffffffffffffffffff167f17307eab39ab6107e8899845ad3d59bd9653f200f220920489ca2b5937696c31836040516111509190611a07565b60405180910390a3505050565b611168848484610cbb565b61117484848484611310565b6111b3576040517f08c379a00000000000000000000000000000000000000000000000000000000081526004016111aa906125e4565b60405180910390fd5b50505050565b606060405180602001604052806000815250905090565b60606111db82610b1a565b60006111e56111b9565b905060008151116112055760405180602001604052806000815250611230565b8061120f84611497565b604051602001611220929190612347565b6040516020818303038152906040525b915050919050565b611252828260405180602001604052806000815250611565565b5050565b61125f826112c3565b61129e576040517f08c379a000000000000000000000000000000000000000000000000000000000815260040161129590612676565b60405180910390fd5b806006600084815260200190815260200160002090816112be9190612842565b505050565b60008073ffffffffffffffffffffffffffffffffffffffff166112e583610fb4565b73ffffffffffffffffffffffffffffffffffffffff1614159050919050565b50505050565b50505050565b60006113318473ffffffffffffffffffffffffffffffffffffffff166115c0565b1561148a578373ffffffffffffffffffffffffffffffffffffffff1663150b7a0261135a610b65565b8786866040518563ffffffff1660e01b815260040161137c9493929190612969565b6020604051808303816000875af19250505080156113b857506040513d601f19601f820116820180604052508101906113b591906129ca565b60015b61143a573d80600081146113e8576040519150601f19603f3d011682016040523d82523d6000602084013e6113ed565b606091505b506000815103611432576040517f08c379a0000000000000000000000000000000000000000000000000000000008152600401611429906125e4565b60405180910390fd5b805181602001fd5b63150b7a0260e01b7bffffffffffffffffffffffffffffffffffffffffffffffffffffffff1916817bffffffffffffffffffffffffffffffffffffffffffffffffffffffff19161491505061148f565b600190505b949350505050565b6060600060016114a6846115e3565b01905060008167ffffffffffffffff8111156114c5576114c4611d1f565b5b6040519080825280601f01601f1916602001820160405280156114f75781602001600182028036833780820191505090505b509050600082602001820190505b60011561155a578080600190039150507f3031323334353637383961626364656600000000000000000000000000000000600a86061a8153600a858161154e5761154d6129f7565b5b04945060008503611505575b819350505050919050565b61156f8383611736565b61157c6000848484611310565b6115bb576040517f08c379a00000000000000000000000000000000000000000000000000000000081526004016115b2906125e4565b60405180910390fd5b505050565b6000808273ffffffffffffffffffffffffffffffffffffffff163b119050919050565b600080600090507a184f03e93ff9f4daa797ed6e38ed64bf6a1f0100000000000000008310611641577a184f03e93ff9f4daa797ed6e38ed64bf6a1f0100000000000000008381611637576116366129f7565b5b0492506040810190505b6d04ee2d6d415b85acef8100000000831061167e576d04ee2d6d415b85acef81000000008381611674576116736129f7565b5b0492506020810190505b662386f26fc1000083106116ad57662386f26fc1000083816116a3576116a26129f7565b5b0492506010810190505b6305f5e10083106116d6576305f5e10083816116cc576116cb6129f7565b5b0492506008810190505b61271083106116fb5761271083816116f1576116f06129f7565b5b0492506004810190505b6064831061171e5760648381611714576117136129f7565b5b0492506002810190505b600a831061172d576001810190505b80915050919050565b600073ffffffffffffffffffffffffffffffffffffffff168273ffffffffffffffffffffffffffffffffffffffff16036117a5576040517f08c379a000000000000000000000000000000000000000000000000000000000815260040161179c90612a72565b60405180910390fd5b6117ae816112c3565b156117ee576040517f08c379a00000000000000000000000000000000000000000000000000000000081526004016117e590612ade565b60405180910390fd5b6117fc600083836001611304565b611805816112c3565b15611845576040517f08c379a000000000000000000000000000000000000000000000000000000000815260040161183c90612ade565b60405180910390fd5b6001600360008473ffffffffffffffffffffffffffffffffffffffff1673ffffffffffffffffffffffffffffffffffffffff16815260200190815260200160002060008282540192505081905550816002600083815260200190815260200160002060006101000a81548173ffffffffffffffffffffffffffffffffffffffff021916908373ffffffffffffffffffffffffffffffffffffffff160217905550808273ffffffffffffffffffffffffffffffffffffffff16600073ffffffffffffffffffffffffffffffffffffffff167fddf252ad1be2c89b69c2b068fc378daa952ba7f163c4a11628f55a4df523b3ef60405160405180910390a461194f60008383600161130a565b5050565b6000604051905090565b600080fd5b600080fd5b60007fffffffff0000000000000000000000000000000000000000000000000000000082169050919050565b61199c81611967565b81146119a757600080fd5b50565b6000813590506119b981611993565b92915050565b6000602082840312156119d5576119d461195d565b5b60006119e3848285016119aa565b91505092915050565b60008115159050919050565b611a01816119ec565b82525050565b6000602082019050611a1c60008301846119f8565b92915050565b600081519050919050565b600082825260208201905092915050565b60005b83811015611a5c578082015181840152602081019050611a41565b60008484015250505050565b6000601f19601f8301169050919050565b6000611a8482611a22565b611a8e8185611a2d565b9350611a9e818560208601611a3e565b611aa781611a68565b840191505092915050565b60006020820190508181036000830152611acc8184611a79565b905092915050565b6000819050919050565b611ae781611ad4565b8114611af257600080fd5b50565b600081359050611b0481611ade565b92915050565b600060208284031215611b2057611b1f61195d565b5b6000611b2e84828501611af5565b91505092915050565b600073ffffffffffffffffffffffffffffffffffffffff82169050919050565b6000611b6282611b37565b9050919050565b611b7281611b57565b82525050565b6000602082019050611b8d6000830184611b69565b92915050565b611b9c81611b57565b8114611ba757600080fd5b50565b600081359050611bb981611b93565b92915050565b60008060408385031215611bd657611bd561195d565b5b6000611be485828601611baa565b9250506020611bf585828601611af5565b9150509250929050565b600080600060608486031215611c1857611c1761195d565b5b6000611c2686828701611baa565b9350506020611c3786828701611baa565b9250506040611c4886828701611af5565b9150509250925092565b600060208284031215611c6857611c6761195d565b5b6000611c7684828501611baa565b91505092915050565b611c8881611ad4565b82525050565b6000602082019050611ca36000830184611c7f565b92915050565b611cb2816119ec565b8114611cbd57600080fd5b50565b600081359050611ccf81611ca9565b92915050565b60008060408385031215611cec57611ceb61195d565b5b6000611cfa85828601611baa565b9250506020611d0b85828601611cc0565b9150509250929050565b600080fd5b600080fd5b7f4e487b7100000000000000000000000000000000000000000000000000000000600052604160045260246000fd5b611d5782611a68565b810181811067ffffffffffffffff82111715611d7657611d75611d1f565b5b80604052505050565b6000611d89611953565b9050611d958282611d4e565b919050565b600067ffffffffffffffff821115611db557611db4611d1f565b5b611dbe82611a68565b9050602081019050919050565b82818337600083830152505050565b6000611ded611de884611d9a565b611d7f565b905082815260208101848484011115611e0957611e08611d1a565b5b611e14848285611dcb565b509392505050565b600082601f830112611e3157611e30611d15565b5b8135611e41848260208601611dda565b91505092915050565b60008060008060808587031215611e6457611e6361195d565b5b6000611e7287828801611baa565b9450506020611e8387828801611baa565b9350506040611e9487828801611af5565b925050606085013567ffffffffffffffff811115611eb557611eb4611962565b5b611ec187828801611e1c565b91505092959194509250565b600067ffffffffffffffff821115611ee857611ee7611d1f565b5b611ef182611a68565b9050602081019050919050565b6000611f11611f0c84611ecd565b611d7f565b905082815260208101848484011115611f2d57611f2c611d1a565b5b611f38848285611dcb565b509392505050565b600082601f830112611f5557611f54611d15565b5b8135611f65848260208601611efe565b91505092915050565b600060208284031215611f8457611f8361195d565b5b600082013567ffffffffffffffff811115611fa257611fa1611962565b5b611fae84828501611f40565b91505092915050565b60008060408385031215611fce57611fcd61195d565b5b6000611fdc85828601611baa565b9250506020611fed85828601611baa565b9150509250929050565b7f4e487b7100000000000000000000000000000000000000000000000000000000600052602260045260246000fd5b6000600282049050600182168061203e57607f821691505b60208210810361205157612050611ff7565b5b50919050565b7f4552433732313a20617070726f76616c20746f2063757272656e74206f776e6560008201527f7200000000000000000000000000000000000000000000000000000000000000602082015250565b60006120b3602183611a2d565b91506120be82612057565b604082019050919050565b600060208201905081810360008301526120e2816120a6565b9050919050565b7f4552433732313a20617070726f76652063616c6c6572206973206e6f7420746f60008201527f6b656e206f776e6572206f7220617070726f76656420666f7220616c6c000000602082015250565b6000612145603d83611a2d565b9150612150826120e9565b604082019050919050565b6000602082019050818103600083015261217481612138565b9050919050565b7f4552433732313a2063616c6c6572206973206e6f7420746f6b656e206f776e6560008201527f72206f7220617070726f76656400000000000000000000000000000000000000602082015250565b60006121d7602d83611a2d565b91506121e28261217b565b604082019050919050565b60006020820190508181036000830152612206816121ca565b9050919050565b7f4552433732313a20696e76616c696420746f6b656e2049440000000000000000600082015250565b6000612243601883611a2d565b915061224e8261220d565b602082019050919050565b6000602082019050818103600083015261227281612236565b9050919050565b7f4552433732313a2061646472657373207a65726f206973206e6f74206120766160008201527f6c6964206f776e65720000000000000000000000000000000000000000000000602082015250565b60006122d5602983611a2d565b91506122e082612279565b604082019050919050565b60006020820190508181036000830152612304816122c8565b9050919050565b600081905092915050565b600061232182611a22565b61232b818561230b565b935061233b818560208601611a3e565b80840191505092915050565b60006123538285612316565b915061235f8284612316565b91508190509392505050565b7f4e487b7100000000000000000000000000000000000000000000000000000000600052601160045260246000fd5b60006123a582611ad4565b91507fffffffffffffffffffffffffffffffffffffffffffffffffffffffffffffffff82036123d7576123d661236b565b5b600182019050919050565b7f4552433732313a207472616e736665722066726f6d20696e636f72726563742060008201527f6f776e6572000000000000000000000000000000000000000000000000000000602082015250565b600061243e602583611a2d565b9150612449826123e2565b604082019050919050565b6000602082019050818103600083015261246d81612431565b9050919050565b7f4552433732313a207472616e7366657220746f20746865207a65726f2061646460008201527f7265737300000000000000000000000000000000000000000000000000000000602082015250565b60006124d0602483611a2d565b91506124db82612474565b604082019050919050565b600060208201905081810360008301526124ff816124c3565b9050919050565b7f4552433732313a20617070726f766520746f2063616c6c657200000000000000600082015250565b600061253c601983611a2d565b915061254782612506565b602082019050919050565b6000602082019050818103600083015261256b8161252f565b9050919050565b7f4552433732313a207472616e7366657220746f206e6f6e20455243373231526560008201527f63656976657220696d706c656d656e7465720000000000000000000000000000602082015250565b60006125ce603283611a2d565b91506125d982612572565b604082019050919050565b600060208201905081810360008301526125fd816125c1565b9050919050565b7f45524337323155524953746f726167653a2055524920736574206f66206e6f6e60008201527f6578697374656e7420746f6b656e000000000000000000000000000000000000602082015250565b6000612660602e83611a2d565b915061266b82612604565b604082019050919050565b6000602082019050818103600083015261268f81612653565b9050919050565b60008190508160005260206000209050919050565b60006020601f8301049050919050565b600082821b905092915050565b6000600883026126f87fffffffffffffffffffffffffffffffffffffffffffffffffffffffffffffffff826126bb565b61270286836126bb565b95508019841693508086168417925050509392505050565b6000819050919050565b600061273f61273a61273584611ad4565b61271a565b611ad4565b9050919050565b6000819050919050565b61275983612724565b61276d61276582612746565b8484546126c8565b825550505050565b600090565b612782612775565b61278d818484612750565b505050565b5b818110156127b1576127a660008261277a565b600181019050612793565b5050565b601f8211156127f6576127c781612696565b6127d0846126ab565b810160208510156127df578190505b6127f36127eb856126ab565b830182612792565b50505b505050565b600082821c905092915050565b6000612819600019846008026127fb565b1980831691505092915050565b60006128328383612808565b9150826002028217905092915050565b61284b82611a22565b67ffffffffffffffff81111561286457612863611d1f565b5b61286e8254612026565b6128798282856127b5565b600060209050601f8311600181146128ac576000841561289a578287015190505b6128a48582612826565b86555061290c565b601f1984166128ba86612696565b60005b828110156128e2578489015182556001820191506020850194506020810190506128bd565b868310156128ff57848901516128fb601f891682612808565b8355505b6001600288020188555050505b505050505050565b600081519050919050565b600082825260208201905092915050565b600061293b82612914565b612945818561291f565b9350612955818560208601611a3e565b61295e81611a68565b840191505092915050565b600060808201905061297e6000830187611b69565b61298b6020830186611b69565b6129986040830185611c7f565b81810360608301526129aa8184612930565b905095945050505050565b6000815190506129c481611993565b92915050565b6000602082840312156129e0576129df61195d565b5b60006129ee848285016129b5565b91505092915050565b7f4e487b7100000000000000000000000000000000000000000000000000000000600052601260045260246000fd5b7f4552433732313a206d696e7420746f20746865207a65726f2061646472657373600082015250565b6000612a5c602083611a2d565b9150612a6782612a26565b602082019050919050565b60006020820190508181036000830152612a8b81612a4f565b9050919050565b7f4552433732313a20746f6b656e20616c7265616479206d696e74656400000000600082015250565b6000612ac8601c83611a2d565b9150612ad382612a92565b602082019050919050565b60006020820190508181036000830152612af781612abb565b905091905056fea264697066735822122071ed94de8a7e6acb06e4572488320296d07d184c47aebd865bee367f42afce2264736f6c63430008120033","linkReferences":{},"deployedLinkReferences":{}}